:042000000BEF10F0E2
:102008001F82FACF02F0FBCF03F0ABED3FF063EF96
:022018003FF097
:107EC300010101C30EF66E7E0EF76E000EF86E0909
:107ED30000F5CF1CF00900F5CF1DF00900F5CF1E0A
:107EE300F000EE10F00C0EEE6AE806FDE11F901FA5
:107EF30092000EF86E00017FEF3FF0F00E956E9446
:107F03009E000E926EF29EF29AF294D59AD59CD56B
:107F130096D580D582D584480ED76EE40ED66EF200
:107F23008EF28AF284D58E000E896E000E8B6E005F
:107F33000E8C6E83B802D0010E196E83BA03D00182
:107F43000E176E898883BCF5D7000E176E000E19C5
:107F53006EF0D70600E9CF04F0EACF05F0E1CF06D3
:107F6300F0E2CF07F0D9CF08F0DACF09F0F3CF0A68
:107F7300F0F4CF0BF0F6CF0CF0F7CF0DF0F8CF0EF7
:107F8300F0F5CF0FF0F2A41CD0F294E40ED66E19E4
:107F930004D8A416D08BAE02D0010E01D0000EFF80
:107FA3000A016E013201328B5001187F0B01188BCD
:107FB3006E1704D8B48BAE04D01A2A1AC089FF896D
:107FC300880FC0F5FF0EC0F8FF0DC0F7FF0CC0F619
:107FD300FF0BC0F4FF0AC0F3FF09C0DAFF08C0D9E2
:107FE300FF07C0E2FF06C0E1FF05C0EAFF04C0E9E6
:0D7FF300FF03C0FBFF02C0FAFF1F92110048
:020000040020DA
:08000000FFFFFFFFFFFFFFFF00
:020000040030CA
:0E000000240E3F1EFF8181FF0FC00FE00F4056
:00000001FF
