:042000000BEF10F0E2
:102008001C82FACF01F0FBCF02F0C9ED3FF0ADEF33
:022018003FF097
:107F5100010101000E0F6EFFD700EE10F0090EEEC9
:107F61006AE806FDE1510EF66E7F0EF76E000EF81F
:107F71006E0900F5CF19F00900F5CF1AF00900F5E7
:107F8100CF1BF01C901C92000EF86E0001AAEF3F6F
:107F9100F00600E9CF03F0EACF04F0E1CF05F0E20B
:107FA100CF06F0D9CF07F0DACF08F0F3CF09F0F41C
:107FB100CF0AF0F6CF0BF0F7CF0CF0F8CF0DF0F5BC
:107FC100CF0EF00EC0F5FF0DC0F8FF0CC0F7FF0B90
:107FD100C0F6FF0AC0F4FF09C0F3FF08C0DAFF07CB
:107FE100C0D9FF06C0E2FF05C0E1FF04C0EAFF03FC
:107FF100C0E9FF02C0FBFF01C0FAFF1C921100FFA4
:020000040020DA
:08000000FFFFFFFFFFFFFFFF00
:020000040030CA
:0E000000240E3F1EFF8181FF0FC00FE00F4056
:00000001FF
